:020000040800F2
:10000000981C002029020008E7210008531D000861
:10001000E5210008ED060008FD2B000800000000A7
:100020000000000000000000000000009101000836
:100030003307000800000000D5010008D1260008A1
:10004000430200084302000843020008430200087C
:1000500043020008BD2600084302000843020008CE
:10006000430200084302000843020008430200085C
:100070004302000843020008F1060008FD060008DC
:10008000430200084302000843020008430200083C
:10009000430200084302000843020008430200082C
:1000A00043020008852700084302000843020008B5
:1000B000430200084302000843020008430200080C
:1000C00043020008430200084302000843020008FC
:1000D00043020008F12B0008430200084302000815
:1000E00043020008430200084302000800F002F83F
:1000F00000F03FF80AA090E8000C82448344AAF183
:100100000107DA4501D100F034F8AFF2090EBAE880
:100110000F0013F0010F18BFFB1A43F0010318473B
:10012000404A0000604A0000103A24BF78C878C1F5
:10013000FAD8520724BF30C830C144BF04680C60ED
:10014000704700000023002400250026103A28BF35
:1001500078C1FBD8520728BF30C148BF0B60704739
:10016000642900F0D780002070471FB51FBD10B56F
:1001700010BD00F089FA1146FFF7F7FF02F0E2FD2B
:1001800000F0A7FA03B4FFF7F2FF03BC02F061FD31
:10019000224B19680868B0E8F00F80F30988BFF3B4
:1001A0006F8F4FF0000080F311884EF00D0E7047F6
:1001B0000000000006480068006880F3088862B606
:1001C00061B6BFF34F8FBFF36F8F00DF00BF00BF7B
:1001D00008ED00E0EFF30980BFF36F8F0F4B1A6853
:1001E00020E9F00F106008B54FF0500080F311883F
:1001F000BFF34F8FBFF36F8F03F0AEFB4FF00000E4
:1002000080F31188BDE8084019680868B0E8F00F6D
:1002100080F30988BFF36F8F704700BF2C00002068
:10022000EFF3058070470000094880470948004700
:10023000FEE7FEE7FEE7FEE7FEE7FEE7FEE7FEE796
:10024000FEE7FEE704480549054A064B70470000F3
:100250005B270008ED00000898160020981C00207D
:100260009818002098180020704700000FB4044927
:1002700010B503AA029800F0F1F910BC5DF814FB68
:100280000C0000200FB41CB5074B06AA7B4469463E
:100290000090059800F0C9F90020694600F0D8F9EF
:1002A0001CBC5DF814FB0000C10300002DE9F04107
:1002B0000E460446002020622046E168884730B39D
:1002C000252805D0D4E901219047206A401CF2E797
:1002D000E168204600278847050018D0A5F14100B5
:1002E000192802D820354FF40067324629462046A7
:1002F0002760FFF735FF40B1012804D0F61D26F036
:1003000007060836D8E7361DD6E72846DAE7206A1A
:10031000BDE8F0812DE9F0410646002410687529FA
:10032000314616A510D0AFF30080002802DA404213
:1003300013A507E031688A0701D512A502E0490735
:1003400004D511A5012401E0AFF3008000210A22A9
:1003500006F1240709E0B0FBF2FCB0FBF2F302FB6C
:100360001C00303078541846491C0028F3D123462D
:100370002A463046BDE8F04100F0F8B80000000021
:100380002D0000002B0000002000000040EA0103C7
:1003900010B59B070FD1042A0DD310C808C9121F2E
:1003A0009C42F8D020BA19BA884201D9012010BD68
:1003B0004FF0FF3010BD1AB1D30703D0521C07E035
:1003C000002010BD10F8013B11F8014B1B1B07D199
:1003D00010F8013B11F8014B1B1B01D1921EF1D10A
:1003E000184610BD032A40F2308010F0030C00F0D4
:1003F000158011F8013BBCF1020F624498BF11F85F
:1004000001CB00F8013B38BF11F8013BA2F1040217
:1004100098BF00F801CB38BF00F8013B11F003038F
:1004200000F02580083AC0F0088051F8043B083AF3
:1004300051F804CBA0E80810F5E7121D5CBF51F895
:10044000043B40F8043BAFF30080D20724BF11F80F
:10045000013B11F801CB48BF11F8012B24BF00F874
:10046000013B00F801CB48BF00F8012B704710B5E5
:10047000203AC0F00B80B1E81850203AA0E818509C
:10048000B1E81850A0E81850BFF4F5AF5FEA027C5D
:1004900024BFB1E81850A0E8185044BF18C918C0CC
:1004A000BDE810405FEA827C24BF51F8043B40F86D
:1004B000043B08BF7047D20728BF31F8023B48BF52
:1004C00011F8012B28BF20F8023B48BF00F8012B90
:1004D00070474FF000020429C0F0128010F0030CA6
:1004E00000F01B80CCF1040CBCF1020F18BF00F827
:1004F000012BA8BF20F8022BA1EB0C0100F00DB8D6
:100500005FEAC17C24BF00F8012B00F8012B48BF33
:1005100000F8012B70474FF0000200B513469446D7
:100520009646203922BFA0E80C50A0E80C50B1F14B
:100530002001BFF4F7AF090728BFA0E80C5048BF5F
:100540000CC05DF804EB890028BF40F8042B08BFFD
:10055000704748BF20F8022B11F0804F18BF00F8F9
:10056000012B704770477047704770472DE9F0477F
:100570000D4699469246044600F124080168880613
:1005800004D5E06921F01001216000E00120A842BB
:1005900001DD471B00E00027A1697A1902EB090081
:1005A000081AA0612078C00602D42046AFF300806C
:1005B000002608E0D4E901211AF806009047206AD5
:1005C000401C761C20624E45F4DB2078C0060AD51C
:1005D0002046AFF3008006E0D4E9012130209047A7
:1005E000206A401C2062381EA7F10107F4DC07E0F6
:1005F000D4E9012118F805009047206A401C2062C8
:10060000281EA5F10105F3DC2046AFF30080207819
:10061000000602D50220BDE8F0870120FBE70000BC
:1006200001694A1C02610878704700B58FB0CDE9B6
:1006300001310021059105497944CDE903101146A6
:100640006846FFF733FE0FB000BD0000E5FFFFFF77
:100650000A6802F8010B0A6070470000074B70B58A
:100660000D467B44FFF7E1FF0446284600F008F8FA
:1006700010B14FF0FF3070BD204670BD6F260000F6
:10068000007B00F080007047754600F02BF8AE4606
:1006900005006946534620F00700854618B020B58E
:1006A000FFF7D0FDBDE820404FF000064FF00007F7
:1006B0004FF000084FF0000B21F00701AC46ACE80A
:1006C000C009ACE8C009ACE8C009ACE8C0098D4677
:1006D000704710B50446AFF300802046BDE81040D7
:1006E000FFF750BD0048704738160020FEE70000B5
:1006F000014800F091B800002C040020014800F0EF
:100700008BB80000E803002030B590F84050012479
:10071000AC40C56B6C60046863604368102B036871
:1007200003D099600068C26030BD9A600068C16003
:1007300030BD704772B6FEE710B590F82110002268
:10074000022905D00421816380F82020012010BDFA
:1007500001680B6823F00E030B6001680B6823F03F
:1007600001030B6090F84030C46B012101FA03F3E0
:10077000636080F8211080F82020104610BD000032
:1007800010B590F821100024022903D004218163C0
:1007900001243DE001680A6822F00E020A60016847
:1007A0000A6822F001020A601A4A0168914201D1E6
:1007B000012121E0174A1432914201D110211BE09E
:1007C000144A2832914201D1891515E0114A3C3270
:1007D000914201D189140FE00E4A5032914202D168
:1007E0004FF4803108E00B4A6432914202D14FF459
:1007F000801101E04FF08071064A083A51600121F2
:1008000080F82110002180F82010416B01B1884749
:10081000204610BD080002402DE9F05FC16B0C6856
:1008200001680B68D0F840C0042202FA0CF2494D6E
:10083000DFF824A1494E4A4FDFF828B1DFF828E15C
:1008400022422CD05A072AD50A68920603D40A6895
:1008500022F004020A600168A94201D1042219E0D1
:10086000514501D1402215E0B14202D14FF48062DE
:1008700010E0B94202D14FF480420BE0594502D159
:100880004FF4802206E0714502D14FF4800201E06E
:100890004FF080622F4908394A60C16A3BE04FF04F
:1008A000020808FA0CF818EA040F4FF000094FF09C
:1008B000010235D05FEA837832D50B689B0605D4F8
:1008C0000B6823F00A030B6080F821200168A9421D
:1008D00001D1022219E0514501D1202215E0B14297
:1008E00002D14FF4007210E0B94202D14FF400522D
:1008F0000BE0594502D14FF4003206E0714502D1B8
:100900004FF4001201E04FF00072124908394A60BA
:1009100080F82090816A00291AD0BDE8F05F08476E
:10092000082505FA0CF5254212D01B0710D50B68D7
:1009300023F00E030B6090F84010C36B02FA01F134
:100940005960826380F8212080F82090016BE2E7F3
:10095000BDE8F09F080002401C0002403000024049
:1009600044000240580002406C00024030B528B3F9
:1009700008C8134914221944B1FBF2F18900C1637C
:1009800010498163022141771A6843F6F0718A4366
:10099000D0E900142143D0E902452C4321430469E6
:1009A0002143446921438469214311431960002193
:1009B0004163012242770177084630BD012030BDF6
:1009C000F8FFFDBF0000024070B5044690F820001B
:1009D000002501280CD0012084F8200094F8216023
:1009E0000020012E06D084F820000225284670BD84
:1009F000022070BD022684F82160A063206806688A
:100A000026F0010606602046FFF77EFEE06A002819
:100A10002068016802D041F00E0106E021F00401D7
:100A200001602068016841F00A01016020680168E6
:100A300041F001010160D9E770B5044600F008F902
:100A40000546601C02D004480078044400F000F918
:100A5000401BA042FAD370BD1C0000202DE9F84FC6
:100A6000DFF8B8910024A9F1040B23460F2709F100
:100A7000040AABF1040EC9E00125A5402A40AA42B0
:100A80007DD1674ED1F804C0ACEB0608B44532D036
:100A900014DCBCF1030F3AD009DCBCF1000F2AD002
:100AA000BCF1010F1CD0BCF1020F31D11DE0BCF133
:100AB000110F17D0BCF1120F2AD119E0B8F5881F19
:100AC00019D006DCB8F5803F15D0B8F5801F1FD1CE
:100AD00011E0B8F5001F0ED0B8F5041F18D10AE0D8
:100AE000CB6815E0CB681B1D12E0CB6808330FE024
:100AF000CB680C330CE08B682BB1012B4FF0080353
:100B000003D0456104E0042302E0056100E0002316
:100B1000FF2A01D8064601E000F104064FEA8405E9
:100B200001D9A5F12005D6F8008007FA05FC28EACE
:100B30000C0803FA05F548EA0508C6F800804D6878
:100B4000ED0062D5374DAE6946F00106AE61AD6984
:100B500024F0030605F001050095334D06EB050C66
:100B6000DCF80850A607360F07FA06F825EA08054C
:100B7000DFF8B880404503D14FF0000817E044E0AB
:100B8000DFF8AC80404502D14FF001080FE0DFF8FC
:100B9000A480404502D14FF0020808E0DFF89880B9
:100BA000404502D14FF0030801E04FF0040808FA75
:100BB00006F848EA0508CCF808804D68D9F80060C6
:100BC000ED024D4601D5164300E096432E604D6878
:100BD000DAF80060AD02554601D5164300E09643B1
:100BE0002E604D68DBF80060AD035D4601D516430D
:100BF00000E096432E604D68DEF80060ED03754618
:100C000001D5164300E096432E60641C0D682A4609
:100C1000E5407FF431AFBDE8F88F000008040140E3
:100C200000001110001002400000014000080140C7
:100C3000000C014000100140001401408068084091
:100C400000D0012070470AB1016170470904FBE739
:100C500001488068704700001C00002070B5040047
:100C600025D094F83D00002520B984F83C5020465A
:100C700000F04EF9242084F83D002068016821F03E
:100C8000010101602068016841F4004101602068B1
:100C9000016821F40041016000F0EAFA4D4A616800
:100CA000914201D84C4900E04C49884201D20120D0
:100CB00070BD4B492368B0FBF1F15E6826F03F063A
:100CC0000E435E606368934206D94FF496735943AE
:100CD0004FF47A73B1FBF3F12368491C1E6A26F0C6
:100CE0003F06314319626168914210D84900401EA5
:100CF000B0FBF1F2521CC2F30B02042A01D2042011
:100D000022E0B0FBF1F0401CC0F30B001CE0A26835
:100D1000F2B301EBC10303EB0116431EB3FBF6F381
:100D20005B1C43F480431B0549D092B301EBC10225
:100D300002EB0111401EB0FBF1F0401CC0F30B00B0
:100D400040F4804040F400402168CA694CF6FF73CB
:100D50009A431043C861D4E9071001432068026830
:100D600022F0C00211430160D4E90301014320686D
:100D7000826848F2FF339A4311438160D4E9050148
:100D800008432168CA6822F0FF021043C86001E0EE
:100D90000EE016E02068016841F001010160256461
:100DA000202084F83D00256384F83E50002070BD6B
:100DB00001EB4106431EB3FBF6F35B1CB3E70120D6
:100DC000C2E701EB4101401EB0FBF1F0401CC0F353
:100DD0000B00B7E7A086010080841E0000093D00DB
:100DE00040420F002DE9F84F1F4690468A460446C0
:100DF000DDF82890FFF72CFF054694F83D002028E9
:100E00007FD11923012240492046009501F034F892
:100E1000002876D194F83C00012872D0012084F893
:100E20003C0020680168C90703D1016841F0010155
:100E300001602068016821F400610160212084F8CC
:100E40003D00102084F83E0000262664C4F824806B
:100E50006785608D20852D48E0622B464A465146C5
:100E6000204600F08FFF90B92068416980690090AA
:100E700036E02A464946204601F0A4F850B1206CDD
:100E8000042804D12068016841F400710160012048
:100E9000BDE8F88F606A216800780861606A401CCC
:100EA0006062618D491E6185218D491E89B221854F
:100EB00022685369DB435B070BD451B100781061A2
:100EC000606A401C6062608D401E6085208D401EFF
:100ED00020852A464946204600F0A2FF0028CED1B0
:100EE000208D0028C5D154F83D0B016841F40071F4
:100EF0000160202004F81E09E67766770020C7E726
:100F0000FFE70220C4E70000020010000000FFFF1E
:100F100010B586B000210091019102910391006803
:100F20000F4988421AD10F4CA06940F00800A06117
:100F3000A069694600F008000490C02000901220CB
:100F40000190032003900848FFF788FDE06940F412
:100F50000010E061E06900F40010049006B010BDDC
:100F60000054004000100240000C0140024881681B
:100F700002781144816070471C000020074810B5BA
:100F8000016841F010010160032000F0A9F80E2073
:100F900000F006F800F04AF8002010BD00200240E2
:100FA00030B505461C4887B0816941F40061816114
:100FB000806906A900F40060009001A800F038F9EB
:100FC00000F066F91549164AB0FBF1F11548491EC3
:100FD0000260416040F2E7320021C0E903218160F4
:100FE000816100F01DFB040012D10E4800F046FBA9
:100FF00004000DD1192000F045F8102D07D2002271
:101000002946192000F04CF80748056000E001244B
:1010100007B0204630BD00000010024040420F00E3
:10102000002C01407004002020000020134808B567
:10103000816941F001018161816901F00101009143
:10104000C16941F08051C161C069002200F0805047
:1010500000900F21901E00F023F805210022084681
:1010600000F01EF8052000F00DF80548416821F059
:10107000E06141F00071416008BD000000100240D5
:1010800000000140002809DB00F01F02012191400F
:101090004009800000F1E020C0F800117047000016
:1010A000F0B40E4B1B680C46C3F30223C3F10705D3
:1010B000042D00D90425191D072901D2002300E0C1
:1010C000DB1E012606FA05F1491E214099409E408B
:1010D000761E16403143F0BC01F0ABBD0CED00E0D4
:1010E000064900F0070208684FF6FF03184040EA7F
:1010F0000220034A10430860704700000CED00E036
:101100000000FA052DE9F0470F46050061D0434E77
:10111000306800F00700B84209D2306820F00700BC
:1011200038433060306800F00700B84251D1286879
:101130003B4C810712D5400703D5606840F4E0605E
:1011400060602878000703D5606840F460506060F4
:101150006068A96820F0F000084360602878C00744
:1011600028D06868012810D02168022810D089078B
:1011700000292EDA616821F0030101436160FFF765
:1011800067FD804641F288390DE021688903EFE769
:101190008901EDE7FFF75CFDA0EB0801494502D9A5
:1011A0000320BDE8F0876068696800F00C00B0EBD0
:1011B000810FEFD1306800F00700B8420BD93068DA
:1011C00020F0070038433060306800F00700B84274
:1011D00001D00120E5E72878400705D56068E96877
:1011E00020F4E060084360602878000706D5606856
:1011F000296920F4605040EAC100606000F058F8AE
:101200006168084AC1F30311515CC840064908608F
:1012100006480068FFF7C4FE0020C2E70020024035
:1012200000100240394B0008280000202000002058
:101230000F2202600C4A536803F0030343605368B3
:1012400003F0F0038360536803F4E063C360526803
:101250004FF4E06303EAD20202610448006800F040
:1012600007000860704700000010024000200240A4
:101270000448054900684968044AC1F30221515CE9
:10128000C84070472800002000100240494B000869
:101290000448054900684968044AC1F3C221515C09
:1012A000C84070472800002000100240494B000849
:1012B0000E4A51680E4801F00C03042B11D0082B84
:1012C0000FD10C48C1F38343C903C05C0AD55168F0
:1012D000084AC1F34041921E515C054A5043B0FB9D
:1012E000F1F0704704494843704700000010024085
:1012F00000127A00294B000800093D002DE9F84F43
:10130000040070D02078C04DC00749D06868C0F391
:101310008100012807D06868C0F38100022809D144
:101320006868C00306D52868800339D5606800283E
:10133000E7D035E06068B0F5803F0BD010B1B0F574
:10134000A02F11D0286820F480302860286820F46D
:10135000802002E0286840F480302860606890B106
:10136000FFF776FC06460AE0286840F480202860F3
:10137000F0E700BFFFF76CFC801B642873D8286877
:101380008003F7D50CE0FFF763FC064605E000BFDD
:10139000FFF75EFC801B6428F0D828688003F7D430
:1013A00020789A4E80074FF001094FF0000839D598
:1013B000686810F00C0F07D06868C0F3810002283D
:1013C00009D16868C00306D42868800714D520694D
:1013D000012808D110E02069B0B1C6F80090FFF7ED
:1013E00037FC074605E00AE1FFF732FCC01B022884
:1013F000C4D828688007F7D52868616920F0F8000C
:1014000040EAC10028600DE0C6F80080FFF720FC2C
:10141000074604E0FFF71CFCC01B022823D82868FD
:101420008007F7D4207800072CD57948A169D9B175
:10143000C0F80090FFF70CFC074604E0FFF708FC3B
:10144000C01B02280FD8686A8007F7D571484FF48F
:10145000FA510068B0FBF1F0009000BF0098411E07
:101460000091FAD20EE080E0C0F80080FFF7F0FBB8
:10147000074604E0FFF7ECFBC01B022875D8686A3A
:101480008007F7D42078400760D5E8690027C000BE
:1014900008D4E86940F08050E861E869012700F06D
:1014A000805000905C480168C90513D401688346E8
:1014B00041F480710160FFF7CBFB824606E000BF7C
:1014C000FFF7C6FBA0EB0A0064284ED8DBF800004B
:1014D000C005F5D5E06801280AD008B1052813D069
:1014E000286A20F001002862286A20F0040002E047
:1014F000286A40F001002862E06841F2883B98B118
:10150000FFF7A6FB82460BE0286A40F00400286241
:10151000EEE700BFFFF79CFBA0EB0A0159455AD844
:10152000286A8007F6D50CE0FFF792FB824605E0BB
:10153000FFF78EFBA0EB0A0159454CD8286A8007BB
:10154000F6D41FB1E86920F08050E861E06988B303
:101550006968C1F38101022944D00228C6F860807D
:1015600004D0FFF775FB044638E034E0FFF770FB6A
:10157000074604E0FFF76CFBC01B02282BD8286845
:101580008001F7D4206AB0F5803F05D16868A16872
:1015900020F4003008436860D4E908010843696812
:1015A00021F4741108436860C6F86090FFF750FB9F
:1015B000044606E025E000BFFFF74AFB001B0228B7
:1015C00009D828688001F7D51BE000BFFFF740FB72
:1015D000001B022802D90320BDE8F88F286880018B
:1015E000F4D40EE00128F7D06868226A00F4803154
:1015F000914204D1616A00F47010884201D0012048
:10160000EAE70020E8E70000001002400000424244
:10161000800442422800002000700040704770475C
:1016200010B5040003D094F83D0010B107E001208C
:1016300010BD002084F83C00204600F01EF8022077
:1016400084F83D00211D206801F0A2F8012084F8F3
:10165000460084F83E0084F83F0084F8400084F897
:10166000410084F8420084F8430084F8440084F880
:10167000450084F83D00002010BD704790F83D10F3
:10168000012901D001207047022180F83D10016836
:10169000CA6842F00102CA6000680B49884208D05B
:1016A000B0F1804F05D00949884202D008498842EC
:1016B00004D1816801F00701062903D0016841F0D7
:1016C0000101016000207047002C0140000400402F
:1016D0000008004070472DE9F04104460068C668E4
:1016E00005694FF00007A90713D5B10711D5F91EF9
:1016F000016101202077206880698007204602D0A0
:10170000FFF7E8FF04E000F07EF8204600F07CF8E8
:101710002777680716D5700714D521686FF0040085
:101720000861022020772068806910F4407F2046FD
:1017300002D0FFF7CFFF04E000F065F8204600F08C
:1017400063F82777280715D5300713D521686FF080
:1017500008000861042020772068C06980072046BF
:1017600002D0FFF7B7FF04E000F04DF8204600F08C
:101770004BF82777E80616D5F00614D521686FF0E8
:1017800010000861082020772068C06910F4407FAD
:10179000204602D0FFF79EFF04E000F034F8204618
:1017A00000F032F82777E80708D0F00706D0216864
:1017B0006FF001000861204600F028F8280608D5DF
:1017C000300606D521686FF0800008612046FFF7DB
:1017D00025FF680608D5700606D521686FF0400021
:1017E0000861204600F01CF8A8060AD5B00608D506
:1017F00021686FF0200008612046BDE8F041FFF746
:101800000EBFBDE8F08170477047000000680349D3
:10181000884201D1FFF7AABB70470000002C0140AD
:10182000704738B5044690F84200202801D00220C5
:1018300038BD51B14AB101202063002060632046C9
:1018400001F054F9216B012901D0012038BD216834
:101850000A684968009121680C3151E8002F42F074
:10186000100241E80023002BF5D138BD10B50C461D
:1018700000680F49884219D1642C17D864220D4999
:101880000D48FFF7CEFF4FF6FF73224609490A487D
:1018900000F00EFA09480068016821F004010160B7
:1018A000BDE8104064210348FEF713BE10BD0000E0
:1018B0000038014094000020A0030020E80300202D
:1018C00010B500680A49884210D1642209490A48C3
:1018D000FFF7A7FF09480068016821F004010160D3
:1018E000BDE8104064210348FEF7F3BD10BD0000C1
:1018F0000038014094000020A0030020E8030020ED
:10190000F8B5016804460868CA684B6910F00F0F03
:101910004FF0000559D003F0010602F490773743E9
:1019200065D0C10705D0D10503D5616C41F0010137
:101930006164410705D5D90703D0616C41F002010C
:101940006164810705D5D90703D0616C41F00401BA
:101950006164010707D502F02001314303D0616CB7
:1019600041F008016164616C00293AD0800604D519
:10197000900602D5204600F0FBFF20684069616CAC
:10198000C0F38010090700D460B3204600F0BBFF0D
:1019900020684069400621D52068143050E8001FB7
:1019A00021F0400140E80012002AF5D1E06BA8B117
:1019B0006D494163E06BFEF7E3FE002811D0E06B58
:1019C000416B01B0BDE8F040084783060FD5930690
:1019D0000DD52046BDE8F84000F0CABF2046FFF70D
:1019E0006FFFF8BD2046FFF76BFF6564F8BD266BFF
:1019F0002023012E7CD1C6067AD5D60678D5086874
:101A00004868009048694FF00206400640D5E16BF7
:101A1000086840680004000CE8D0A28D8242E5D935
:101A2000E085886920282DD020680C3050E8001F00
:101A300021F4807140E80012002AF5D120681430AA
:101A400050E8001F21F0010140E80012002AF5D102
:101A50002068143050E8001F21F0400140E80012D7
:101A6000002AF5D184F84230256320680C3050E814
:101A7000001F21F0100140E80012002AF5D1E06BB0
:101A8000FEF75AFE6663A08DE18D401A81B22AE00E
:101A9000A08DE18D401A81B2E08D0028A6D00029EA
:101AA000A4D022680C3252E8000F20F4907042E873
:101AB0000007002FF5D12068143050E8002F22F0E5
:101AC000010240E80027002FF5D184F84230256359
:101AD00020680C3050E8002F22F0100240E800236C
:101AE000002BF5D166632046FFF7C0FEF8BDFFE787
:101AF00005062BD5150629D594F841002128F5D1E6
:101B0000A068B0F5805F01D12069B0B1206A411CA6
:101B10002162216800784860E08C401E0004000CBF
:101B2000E084E3D12068C16821F08001C1602068B1
:101B3000C16841F04001C160D8E7206A0088C0F365
:101B400008004860206A801C2062E5E74006CDD589
:101B50005006CBD5CA68204622F04002CA6084F8FD
:101B6000413000F0F5F8C1E70928000870B504001D
:101B700004D094F84100002510B106E0012070BDAA
:101B800084F84050204600F023F8242084F84100D7
:101B90002068C16821F40051C160204600F04AFF6E
:101BA0002068016921F4904101612068416921F0B8
:101BB0002A0141612068C16841F40051C160656437
:101BC000202084F8410084F842006563002070BD45
:101BD000F0B585B000240646009401940294039465
:101BE00000682D49884254D12C48816941F48041D4
:101BF0008161816901F480410491816941F00401AE
:101C000081618069264D00F0040004904FF400705B
:101C10000090022001900320039069462846FEF7B9
:101C20001DFF2815CDE90004694628460294FEF7F9
:101C300015FF1D4D1B488027C5E90004C5E9024773
:101C40002C616C61AC612846EC61FEF78FFE08B137
:101C5000FEF770FDF5636E62134D1248443514387B
:101C600001C5102091C5104845F8104944306C61F9
:101C7000AC61EC61FEF77AFE08B1FEF75BFDB5637F
:101C80000022052125206E62FFF70AFA2520FFF7C2
:101C9000F9F905B0F0BD0000003801400010024025
:101CA0000008014058000240E803002070477047D8
:101CB0002DE9F843044690F84100984616460D4633
:101CC000202802D00220BDE8F88385B17EB1002033
:101CD0006064212084F84100FEF7BAFFA6848146A3
:101CE000E684A0682027B0F5805F02D003E00120E1
:101CF000E9E7206910B12E4600250EE000260CE031
:101D00008021204600F03AFFA8B9C6B116F8010BB1
:101D100021684860E08C401EE084E08C4B464FF028
:101D20000002CDF800800028EAD14FF040012046A3
:101D300000F024FF40B184F841700320C3E735F878
:101D4000020BC0F30800E3E784F841700020BAE713
:101D50007047FEE701684A69D24352050FD46FF419
:101D600080624A61002140F8301F20224273817353
:101D7000026942F0040202610173012070470020F1
:101D800070470000F8B50446C06A1E460D46174667
:101D9000082807D0012805D010F5803F02D0206B1D
:101DA000122804D12068016841F480710160134653
:101DB00000224FF001112046009600F05DF840B17E
:101DC00020680068C00502D54FF40070206403202D
:101DD000F8BD2069B0F5804F0ED00620216800EADA
:101DE000D51040F0F000086133463A460B492046D2
:101DF00000F08AF878B902E005F0FE0000E0E8B2F1
:101E000021680861054933463A46891F204600F09B
:101E10007BF80028DCD00120F8BD0000080001009C
:101E200070B516460D4604461EE02046FFF792FFA9
:101E300008B1012070BD681C16D0FEF709FF801B99
:101E4000A84200D885B920684069C04340070BD537
:101E5000002044F8300F20216173A073216941F004
:101E6000200121612073E4E720684069C0434007F6
:101E7000DBD4002070BD00002DE9F04798461746DE
:101E80000D460446C1F30746DDF820902AE000BF66
:101E9000B8F1FF3F26D0FEF7DBFEA0EB090141457C
:101EA00002D8B8F1000F1DD12068012E16D080692C
:101EB00025EA00000004000C12D00020B84211D125
:101EC000002044F8300F20216173A073216941F094
:101ED0002001216120730120BDE8F0874069E7E718
:101EE0000120EBE72068012E0AD0806925EA000076
:101EF0000004000C06D00020B842C9D00020EBE757
:101F00004069F3E70120F7E72DE9F04798461646C8
:101F10000D4604464FF000094FF0200AC1F3074771
:101F200023E020684069C043400515D4206801685B
:101F300041F40071016021686FF480604861C4F869
:101F4000309084F83DA084F83E90216C41F004016B
:101F5000216484F83C9021E0701C06D0FEF778FEE6
:101F6000A0EB0800B04203D816B1012F1FD021E02A
:101F70002068012F15D0806925EA00000004000CBC
:101F800018D000BF44F8309F84F80DA084F80E905C
:101F9000216941F02001216184F80C900120BDE805
:101FA000F087406925EA00000004000CEAD12068AF
:101FB000406901E02068806925EA00000004000C07
:101FC000AFD1ECE770B516460D4604461EE020463C
:101FD000FFF7C0FE08B1012070BD681C16D0FEF7E7
:101FE00037FE801BA84200D885B920684069C043ED
:101FF00000060BD5002044F8300F20216173A07338
:10200000216941F0200121612073E4E720684069E3
:10201000C0430006DBD4002070BD000008B501F00D
:1020200075FD009000F062FE0D4D0E4E4FF4004421
:102030004FF4967721462846FEF700FE20B1012195
:102040003046FEF7FBFD30B901F06CFA00F016FFE8
:102050003846FEF7F1FC0A21684601F0A3FBE9E7E8
:1020600000100140000C01400D4808B5416941F0E5
:10207000010141614069002200F00100009005214A
:102080000E20FFF70DF80E20FEF7FCFF00220521C1
:102090000F20FFF705F8BDE808400F20FEF7F2BF5C
:1020A0000010024000B587B01C2206496846FEF7C2
:1020B000DEF90021684600F0B6FE0349086007B06B
:1020C00000BD0000A83C00080800002070B586B0E4
:1020D000002523480095019502950395816941F0FB
:1020E00010018161816901F010010491816941F061
:1020F00020018161816901F020010491816941F031
:1021000008018161816901F008010491816941F050
:10211000040181618069012200F00400114E540322
:10212000049021463046FEF78EFD009401240320E2
:10213000CDE90240694601943046FEF78FFCE0038A
:10214000CDE90005694602943046FEF787FCCDE9EB
:102150000045694604480294FEF780FC06B070BD55
:102160000010024000100140000C01400D4810B565
:102170000B4901600C49416000214FF480428160AD
:10218000C0E9031241618161C1610162FEF766FD30
:10219000002803D0BDE81040FEF7CCBA10BD000007
:1021A000005400404C030020801A06000C4810B573
:1021B0000A4901604FF4E1314160002181600C2245
:1021C000C160C0E904128161C161FFF7CFFC002842
:1021D00003D0BDE81040FEF7ADBA10BD0038014095
:1021E000A0030020FEE7FEE71CB55478CDE90043CC
:1021F0001378526800F0BEF91CBD00002DE9F84FBD
:10220000044617463D481E460D46BC4210D1B54215
:102210000AD945702E461D4606E0294620460A9AF0
:1022200000F010FA6D1CEDB2B542F6D9BDE8F88F9A
:10223000B5420FD1BC420AD944702746144606E085
:10224000294620460A9A00F0FDF9641CE4B2BC421B
:10225000F6D9EBE7381B711B002801DD012300E0F4
:1022600000234FF0FF3202EB43030093002901DD0E
:10227000012300E00023A846002502EB430B0028C1
:1022800000DA40428146002900DA49428A46D145B7
:1022900016DC2FE008F0FF01E0B20A9A00F0D2F954
:1022A00005EB0A0005B2B9EB450F06DC08EB0B00A5
:1022B0000FFA80F8A5EB090005B20098204404B29B
:1022C000BC42E7D1B2E700BF08F0FF01E0B20A9AD2
:1022D00000F0B8F905EB090005B2BAEB450F05DCD3
:1022E0000098204404B2A5EB0A0005B208EB0B00ED
:1022F0000FFA80F8B045E7D198E700001000002001
:1023000010B5AE2000F0D6F8202000F0D3F8102051
:1023100000F0D0F8B02000F0CDF8C82000F0CAF8E6
:10232000002000F0C7F8102000F0C4F8402000F0B2
:10233000C1F8812000F0BEF8FF2000F0BBF8A1201A
:1023400000F0B8F8A62000F0B5F8A82000F0B2F828
:102350003F2000F0AFF8A42000F0ACF8D32000F04C
:10236000A9F8002000F0A6F8D52000F0A3F8F0208E
:1023700000F0A0F8D92000F09DF8222000F09AF893
:10238000DA2000F097F8122000F094F8DB2000F03B
:1023900091F8202000F08EF88D2000F08BF81420AA
:1023A00000F088F8BDE81040AF2000F083B80000CE
:1023B0004FF480610148FEF78CB800003905002019
:1023C0003CB51C78059D203ACDE900455D68E41DCB
:1023D0005B78E408544303FB045200F0CBF83CBDA7
:1023E0002DE9FF4F18785978C01DC00800254843D3
:1023F000001D83B01C46174600F0FF0A2AE078193A
:10240000814600F0FCFB5FEA000826D000260AE0C7
:102410006168484606FB0A1B42465946FDF7B6FF6F
:10242000F0B1761CF6B2207AB042F1D81098009044
:10243000E368B8F1010F20D0DDE903012022FFF7A6
:10244000BFFFE068417803980844C0B2039005EBF1
:10245000080085B2785D0028D1D107B0BDE8F08FC3
:1024600010992078CDE900016378DDE903010BF1D3
:10247000040200F07FF86178E5E77A57DDE90301AF
:10248000FFF79EFFE0686D1CADB2417803980844E9
:10249000C0B20390DEE7000008B54FF0FF320092B3
:1024A0000B46024678210248FEF79CFC08BD00005E
:1024B0004C0300200249487002210148FFF7ECBF9D
:1024C000120000202DE9FC4180460720CDE90003E1
:1024D00001F00704CD08164602FA04F01F46C2B206
:1024E00023464146284600F089F8002C0CD0601E97
:1024F000C0B2CDE90007C4F1080026FA00F2681C5A
:102500000023414600F07AF8BDE8FC812DE9FC4348
:1025100001F007061446CD089846814601F00701F0
:1025200006EB080204FA01F0099F082A16D90721D0
:10253000CDE90017C2B233464946284600F05EF89E
:1025400008EB06000938C0B2CDE90007C6F1080063
:1025500024FA00F2681C0023494607E0521ED1B25B
:10256000CDE90017C2B233464946284600F046F886
:10257000BDE8FC832DE9FF4F82B01D460F989346BE
:10258000C70800F0070088460026019018E002986E
:1025900000240BEB060A00EB06090DE004FB05F036
:1025A000109B10F80A2008EBC400C1B209F0FF002C
:1025B000FFF788FF641CE4B2BC42EFD3761CF6B28E
:1025C000AE42E4D30198002815D005FB07F600249D
:1025D00008EBC7070DE010980090311902981BF81E
:1025E00001202044F9B2C0B2019BFFF78FFF641CA9
:1025F000E4B2AC42EFD306B0BDE8F08FF0B50828E6
:10260000DDE9056419D2802917D20CB1D243D2B2C8
:10261000FF25761C05FA06F6C3F10803084F46EAC3
:102620000204DD4007EBC017044B785CB2432C4337
:10263000AA4320401A7010437854F0BD10000020C7
:102640003905002030B580280ED240290CD201F087
:1026500007040123064DA340C90805EBC111002A58
:102660000A5C02D09A430A5430BD1A43FBE70000CB
:102670003905002070B5104D40200024287005F168
:10268000810600BF04F1B000C0B2FFF713FF0220C3
:10269000FFF710FF1020FFF70DFF06EBC41180229B
:1026A000681CFDF79FFE81210348FFF7F5FE641CBF
:1026B000E4B2082CE6D370BDB8040020704700F0E7
:1026C0004BFF002001F0B4F8012000F0A0FBFBE775
:1026D00010B5502080F31188BFF34F8FBFF36F8F79
:1026E00001F01AFA18B104494FF080500860002038
:1026F00080F3118810BD000004ED00E030B58FB00C
:1027000028216846FDF707FF14210AA8FDF703FFFB
:1027100001210804CDE9001000240294022504914F
:10272000CDE907504FF4E01009906846FEF7E6FD4A
:1027300008B172B6FEE70F20CDE90A054FF48060BC
:10274000CDE90C4002210AA80E94FEF7DBFC00281C
:1027500001D072B6FEE70FB030BD704708B501F08A
:10276000D5F94FF4FA74009003A0FDF77FFD2146E0
:10277000684601F017F8F7E7544553542074617325
:102780006B0D0A000148FEF7A6BF00007004002090
:10279000F0B50268194B1A4C1A4D4FF08047984219
:1027A00005D0B84203D0A04201D0A84203D122F004
:1027B00070064A683243984205D0B84203D0A0421E
:1027C00001D0A84203D122F44074CA6822434C6964
:1027D00022F08002224302608A68C2620A68826232
:1027E000984201D109690163012141610169C90769
:1027F00003D0016921F001010161F0BD002C01400D
:10280000000400400008004010B5406A0021C18566
:10281000C184FFF755F810BD70B5446A206840695F
:1028200094F84110C0F3C0100025212904D118B13B
:10283000E584204600F08EF82068406994F8421044
:10284000C0F38010222904D118B1E585204600F09C
:102850005AF8606C40F0100060642046FFF730F8D2
:1028600070BD10B50146406A096809684FF0000262
:1028700089062ED4C28501680C3151E8003F23F44B
:10288000807341E80034002CF5D10168143151E81F
:10289000003F23F0010341E80034002CF5D101682A
:1028A000143151E8003F23F0400341E80034002C8C
:1028B000F5D1202180F84210016B012909D101686E
:1028C0000C3151E8003F23F0100341E80034002CA4
:1028D000F5D14263016B012902D0FFF7E7F910BD82
:1028E000818DFEF7C3FF10BD10B5406A0121416321
:1028F000016B012902D0FFF7DAF910BD818D49087B
:10290000FEF7B4FF10BD01680C3151E8002F22F42E
:10291000907241E80023002BF5D10168143151E891
:10292000002F22F0010241E80023002BF5D1016BBA
:10293000012909D101680C3151E8002F22F0100261
:1029400041E80023002BF5D1202180F8421000211E
:102950000163704701680C3151E8002F22F0C0027A
:1029600041E80023002BF5D1202180F84110704769
:1029700008B590F84210222901D0022008BD8268D3
:102980004FF480539A4201D1016921B1816A9A4280
:102990001BD04AB10AE00268816A5268C2F3080299
:1029A0000A80816A891C08E0026972B10268526873
:1029B00002F07F020A70816A491C8162C18D491E42
:1029C0000904090CC18503D01BE002685268F1E7D5
:1029D0000168CA6822F02002CA600168CA6822F44D
:1029E0008072CA6001684A6922F001024A612021AE
:1029F00080F8421000214163026B012A03D0FFF7E7
:102A000055F9002008BD016301680C3151E8002F21
:102A100022F0100241E80023002BF5D101680A687A
:102A2000D20602D50A6849680091818DFEF71EFF23
:102A3000E7E7000070B5044600680169E26821F428
:102A40004051114301612169A0680843616908434D
:102A50002168CA6841F20C639A430243CA60206845
:102A60004169A26921F44071114341611E49206806
:102A7000884202D1FEF70CFC01E0FEF7F9FB00EB07
:102A8000C00101EB0012606864218000B2FBF0F32A
:102A9000B3FBF1F36FF018067343B2FBF0F5B2FB32
:102AA000F0F605EB8305322303EB0515B5FBF1F5D5
:102AB000B6FBF1F605F0F00505EB0615B2FBF0F6F6
:102AC000B2FBF0F0B0FBF1F06FF01802504306EBF0
:102AD000800003EB0010B0FBF1F0216800F00F0064
:102AE0002844886070BD00000038014038B581621C
:102AF00004468285002013466064222284F8422026
:102B0000E56B1B4AAA62E56B1A4AEA62E56B1A4A50
:102B10002A63E26B50630A462168E06B091DFDF7EA
:102B200053FF2068016840680090206948B1206820
:102B30000C3050E8001F41F4807140E80012002A78
:102B4000F5D12068143050E8001F41F0010140E841
:102B50000012002AF5D12068143050E8001F41F01F
:102B6000400140E80012002AF5D1002038BD0000E5
:102B700063280008E9280008192800082DE9F8430F
:102B8000984617460D460446089E24E0701C22D045
:102B9000FEF75EF8A0EB0800B0421AD8CEB120686C
:102BA000C168490717D5802D15D0402D13D0016875
:102BB000C94309070FD401680025406800902046EA
:102BC000FFF7A1FE0820606484F840500120BDE8B2
:102BD000F8830320FBE72068006835EA000004D092
:102BE0000020B842D2D00020F1E70120F9E7000030
:102BF0000148FEF785BE0000A0030020FEE790F923
:102C00000000010601D401207047C0F342110629DB
:102C100009D0C0F303110E2907D0C0F3C4001E2849
:102C200005D0002070470220704703207047042021
:102C300070470907090E002804DB00F1E02080F846
:102C40000014704700F00F0000F1E02080F8141D20
:102C50007047704738B50124A1B1134813A14268E9
:102C60001348FDF70FFB134B13A216213C200094D1
:102C7000FFF7B6FB0F4B0E4A162100946620FFF7B4
:102C8000AFFB38BD024609A10948FDF7FBFA094B25
:102C90000DA2032148200094FFF7A2FB054B044A34
:102CA00003210094EAE700001400002025640000DE
:102CB0003909002094490008E69C80E9AB98E58832
:102CC00086EFBC9A00000000E5BE97E58886EFBC61
:102CD0009A00000013B54FF6FF73012269460248BF
:102CE000FEF7E6FF00981CBDA003002038B5FFF7F3
:102CF0005FFB01240B4B0CA2082118200094FFF766
:102D00006FFB01230C4A27210A20FFF76DFA054BC0
:102D10000AA22B2130200094FFF762FBBDE8384067
:102D2000FFF7A8BC34480008E5B08FE68190E9BE03
:102D300099E6B8B8E6888F00FC490008E5BC80E554
:102D4000A78B0000FEF71AF9FFF7D8FCFFF7BEF9D2
:102D5000FFF78AF9FFF72AFAFFF708FA64220C490D
:102D60000C48FEF75EFD0C480068016821F0040184
:102D70000160C820FDF760FEFFF7C2FAFFF718FBFD
:102D8000FFF778FCFFF78EF900F048F8FEE7000047
:102D900094000020A0030020E8030020014600204A
:102DA000842900D0C81C704759B101290ED04A1C93
:102DB00011D0891C14D10B4AC1B201230A20FFF79C
:102DC00013BA084A0123C1B20832F7E7054A0123C2
:102DD000C1B21032F2E7034A0123C1B21832EDE763
:102DE00070470000E449000830B40A78C2F17F025D
:102DF00082420ADB4A78C0B2C2F13F02D4B20A462C
:102E0000214630BC0123FFF7EFB930BC704710B545
:102E100000B9012000F0A0FC002010BD10B500F0AA
:102E20005DFD002010BD7FB50D4604464169B0F937
:102E3000080081B1A16971B1FFF7B0FFD4E90512B3
:102E40008DE80700D4E900102B46226900F033FE1C
:102E5000039004B070BDFFF7A1FF03A9CDE9000105
:102E6000208A2B4682B2D4E9001000F0F7FD012839
:102E700001D00020EDE70398EBE700002DE9F04FCB
:102E800085B0FC20049040F27D104FF4B07440F205
:102E900045250390FDF7DCFE400701D0854801E0A1
:102EA000844808300290FDF7D3FE0521B0FBF1F213
:102EB00001FB120008B17F4801E07E48083000267F
:102EC0004FF01F094FF0270BB0463746B24601902E
:102ED000FFF76EFA01217848FDF7B0FE28B14FF4F4
:102EE00000417648FDF7AAFE00B91EB1052E03DAAF
:102EF000314602E00126FBE70521A9EB0100A042D3
:102F00001FDB0B2C1DDD02984078C0F13F010BF157
:102F10001700814215DC6FF0010158462AE0476036
:102F2000674B68A216214B200094FFF759FA03E083
:102F300001213846FFF78EFE05B0BDE8F04FFFF7E0
:102F400099BB052E01DA314600E00521A9EB01000D
:102F5000A8422ADB0B2D28DD01984078C0F13F0103
:102F60000BF11700814220DC5846BBF1240F1CDB1B
:102F70006FF00101FFF718FF20460299FFF734FFB9
:102F800028460199FFF730FF01243F237F2219468D
:102F900000200094FFF732F900213846FFF75AFE6F
:102FA0004C4841688F42C3DDB9E7002E0ADD414835
:102FB00010303044761C10F8010C262EC0F1270B7F
:102FC00000DD002608F10108052198FBF1F700213A
:102FD0003846FFF73FFE2EB14FF0FF315846FFF75E
:102FE000E3FE11E0BAF1040F01DD012100E0002150
:102FF0005846FFF7D9FE0AF101004FFA80FABAF1FC
:10300000090F01DD4FF0000A20460299FFF7ECFEA0
:1030100028460199FFF7E8FE01203F2300907F2218
:1030200019460020FFF7EAF8A41EAD1E24B22DB207
:10303000002C15DCFDF70CFE0A21B0FBF1F1142089
:10304000B1FBF0F200FB12110498084404B2FDF742
:10305000FFFD800701D0174801E0164808300290B4
:10306000002D15DCFDF7F4FD0A21B0FBF1F1142071
:10307000B1FBF0F200FB12110398084405B2FDF712
:10308000E7FDC00701D00B4801E00A480830019075
:103090001049601B00B20880411E2D2902D820442F
:1030A00004B204E010F12E0101D3284405B2FFF769
:1030B000E1FA0DE7044A0008000C0140001001404D
:1030C00094490008E696B0E7BAAAE5BD95EFBC8141
:1030D00000000000140000202DE9F041184C0F46BC
:1030E0000546E6682068001D00F06EFA38B92068D1
:1030F00090F82C1001208840216981432161681CCF
:1031000007D137B12168BDE8F0410E48091D00F034
:103110009FBA20683544B5424560216805D2A06B4E
:10312000BDE8F041091D00F07BBA606B091D00F09D
:1031300077FAA06A854200D2A562BDE8F08100005E
:103140002C000020240A00202DE9F041054600F063
:103150008BFA2E4CA068401CA06020682C4F10B148
:10316000606940B32DE02560A068012829D10026C0
:1031700006EB860007EB800000F044FA761C072E71
:10318000F6D323488C3000F03DFA2148A03000F0FF
:1031900039FA1F48B43000F035FA1D48C83000F045
:1031A00031FA1B48DC3000F02DFA19488C3060638E
:1031B0001430A06305E02068E96AC06A884200D83C
:1031C0002560606A401C6062E96A012022698840CB
:1031D0001043206101EB810007EB8000291D00F006
:1031E00037FA00F061FA606900280CD02068E96ABB
:1031F000C06A884207D207494FF080500860BFF389
:103200004F8FBFF36F8FBDE8F08100002C000020CE
:103210004809002004ED00E010B5044690F8510084
:1032200058B101280CD002280FD0502080F311880B
:10323000BFF34F8FBFF36F8FFEE7206B00F048FAAC
:103240002046BDE8104000F043BA10BD10484FF4CE
:103250004061420706D0C01D0D4920F00700411A09
:10326000C1F540610B4A00230144C2E9000308395B
:10327000183A21F0070111604B600B600B1AC0E98E
:10328000001393604FF0004053605061704700009E
:10329000380A002080000020144E154CA6F1C80703
:1032A0004FF08058DFF84C9012E000BF00F0DCF9DE
:1032B000F068C568281D00F087F9A068401EA0606E
:1032C0006068401E606000F0EFF92846FFF7A4FF39
:1032D00060680028EAD138680128F9D9C9F8008067
:1032E000BFF34F8FBFF36F8FF2E70000100A00208B
:1032F0002C00002004ED00E02DE9F0479A46DDE9BE
:10330000098481466FF00303206B03EB82021044B3
:10331000089E20F00707780707D0502080F3118817
:10332000BFF34F8FBFF36F8FFEE7002561B1002021
:1033300023180A5C83F834200A5C12B1401C102860
:10334000F6D384F8435001E084F83450072E00D3BC
:103350000626E662C4E91165201D00F05EF904F15D
:10336000180000F05AF92461C6F107006462A061F8
:10337000E56484F8505052464946384600F0C0F89B
:103380002060B8F1000F01D0C8F80040BDE8F08718
:1033900030B5114900E011460A688242FBD34B6800
:1033A0005C18844203D1406818444860084643686A
:1033B0001C18944209D1084C183C2468A24209D038
:1033C00052681A4442600A6812680260814200D062
:1033D000086030BD0460F9E7800000200648416BBA
:1033E000096829B1416BC968C96849688162704739
:1033F0004FF0FF31FAE700002C0000200848406839
:10340000401C4FF0500080F3118804D0BFF34F8F61
:10341000BFF36F8FFEE7BFF34F8FBFF36F8FFEE7F2
:10342000880000202DE9F0410546002700F08CFAC5
:10343000324E306808B9FFF709FF706905424ED176
:10344000C5B3083568070ED005F00700C0F10800C5
:103450000544680707D0502080F31188BFF34F8FD1
:10346000BFF36F8FFEE72DB37068854237D82348CE
:10347000183001460C6801E020460C466168A942FC
:1034800002D221680029F7D131688C4227D0076821
:103490002168016060680837411B10290FD9601945
:1034A000420708D0502080F31188BFF34F8FBFF33D
:1034B0006F8FFEE713E041606560FFF769FF6168A9
:1034C0007068401A7060B268904200D2B060706953
:1034D00001430020C4E90001F068401CF06000F0E6
:1034E00081FB780707D0502080F31188BFF34F8FFE
:1034F000BFF36F8FFEE73846BDE8F081680000201B
:1035000010B5031F4FF080741C601B1F21F00101D8
:103510001960191F024B0B60143940380A6010BD46
:10352000FD33000838B50124FEF742FF0123094AA4
:1035300027210A20FEF758FE01253F23E2B2194653
:1035400000200095FEF75AFEFFF794F8241D7F2C0B
:10355000F3DD38BDFC4900081CB500F085F80DA06E
:10356000FCF784FE0E480224CDE9004000236422CB
:103570000CA10F4800F072FA0E480023CDE900407C
:1035800064220DA10F4800F069FABDE81C4000F06C
:103590008BB800005461736B496E69740D0A0000AA
:1035A000000000204C45445F7461736B0000000014
:1035B0001D20000804000020544553545F746173BB
:1035C0006B0000005D270008D0E9013201699A60B4
:1035D000D0E901235A604A68824201D182684A6078
:1035E000002202610868401E0860086870470000F9
:1035F000034B036003F154000860802010607047A3
:10360000F800002000F108014FF0FF32C0E901127C
:10361000C1600161002101607047002101617047B4
:1036200030B50B685A1C02D000F1080202E00269B2
:1036300004E02246546825689D42FAD953684B60DD
:1036400099608A60516008610168491C016030BD61
:1036500042684A6093688B60936859609160086122
:103660000168491C01607047502080F31188BFF346
:103670004F8FBFF36F8F0A494868401C486001288C
:103680000CD10848006810F0FF0F07D0502080F3DD
:103690001188BFF34F8FBFF36F8FFEE770470000B5
:1036A0008800002004ED00E00849486828B1401E69
:1036B000486001D180F311887047502080F3118851
:1036C000BFF34F8FBFF36F8FFEE70000880000202D
:1036D00070B500282AD0164DA0F108046068696909
:1036E000084207D1502080F31188BFF34F8FBFF3FA
:1036F0006F8FFEE722683AB1502080F31188BFF344
:103700004F8FBFF36F8FFEE78843606000F01CF9B6
:1037100060686968084468602046FFF739FE2869D8
:10372000401C2861BDE8704000F05CBA70BD00002C
:10373000680000204FF0E02000210161816105490F
:103740004FF47A720968B1FBF2F1491E4161072119
:10375000016170472800002010B5020014D00F4806
:10376000006B38B1502080F31188BFF34F8FBFF347
:103770006F8FFEE700F0E8F800211046FFF7ACFC81
:1037800000F030FA002807D105494FF0805008605A
:10379000BFF34F8FBFF36F8F10BD00002C000020D0
:1037A00004ED00E070B50D4604000BD095B11E4A43
:1037B000106BB8B1502080F31188BFF34F8FBFF367
:1037C0006F8FFEE7502080F31188BFF34F8FBFF358
:1037D0006F8FFEE7502080F31188BFF34F8FBFF348
:1037E0006F8FFEE700F0B0F8D26823685919934252
:1037F00004D98B420AD9914202D807E08B42FAD908
:10380000881A21600021FFF767FC00E0216000F0CA
:10381000E9F9002807D105494FF080500860BFF34F
:103820004F8FBFF36F8F70BD2C00002004ED00E0C0
:1038300070B50546FFF718FF254C05B92568281D0A
:10384000FFF7C2FE58B9E86A224A00EB800152F83D
:10385000211021B901218140206988432061A86A93
:1038600018B105F11800FFF7AFFE606A401C6062F6
:103870002068854208D11748291DC830FFF7E8FEA7
:103880006068401C606007E0A068401EA060284699
:10389000FFF7C2FCFFF7A2FDFFF706FF60690028F3
:1038A00014D02068854211D1206B38B1502080F3AC
:1038B0001188BFF34F8FBFF36F8FFEE706494FF0BC
:1038C00080500860BFF34F8FBFF36F8F70BD000053
:1038D0002C0000204809002004ED00E010B586B05F
:1038E0000024039405AA04A903A80494FFF780FE0A
:1038F000DDE903010094CDE9011000230EA1104879
:10390000059A00F0D8F80F490028C86211D050205D
:1039100080F31188BFF34F8FBFF36F8F4FF0FF30ED
:10392000886201204861CC6006B0BDE8104000F01C
:1039300041B806B010BD000049444C4500000000ED
:10394000993200082C0000200248016B491C0163D9
:10395000704700002C0000201448016B11B10121B8
:10396000C16170470021C1610169B1FA81F1C1F102
:103970001F0101EB81020E4951F822306BB101EBBE
:10398000820101F108034A6852684A609A4201D1F3
:1039900052684A60D16801607047502080F31188F6
:1039A000BFF34F8FBFF36F8FFEE700002C000020A6
:1039B000480900201CB5264908780190FF200870AE
:1039C00008788DF800009DF800009DF8002000F0B8
:1039D000F000904207D0502080F31188BFF34F8F42
:1039E000BFF36F8FFEE79DF800001A4C00F0500007
:1039F00020700720A06005E09DF8002052008DF89F
:103A00000020401E9DF800201206F5D4A060032877
:103A100007D0502080F31188BFF34F8FBFF36F8F13
:103A2000FEE74FF44070A060019808700A480168F2
:103A300041F470010160016841F070410160FFF7DD
:103A400079FE00206060FCF7B5FB00201CBD000083
:103A500000E400E08800002020ED00E02DE9FF5F99
:103A60008346DDE90E87994616468A469000FFF7A1
:103A7000D9FC05001CD05420FFF7D4FC040014D05E
:103A80000020256384F85100CDE90240CDE900878C
:103A90004B46324651465846FFF72EFC2046FFF76C
:103AA00053FB012004B0BDE8F09F2846FFF710FE4D
:103AB0004FF0FF30F6E7F0B585B0DDE90B640A9D05
:103AC000A6B1DCB1542700972663022684F8516022
:103AD000002604AFCDE90246CDE90057FFF70CFC04
:103AE0002046FFF731FB049805B0F0BD502080F36D
:103AF0001188BFF34F8FBFF36F8FFEE7502080F325
:103B00001188BFF34F8FBFF36F8FFEE70148C06886
:103B1000704700002C0000202DE9F0412F4C0026BA
:103B2000206B28B1A069401CA0613046BDE8F0813F
:103B3000E5686D1CE56013D1606B006838B15020FA
:103B400080F31188BFF34F8FBFF36F8FFEE7606B79
:103B5000A16B6163A063206A401C2062FFF73EFCFA
:103B6000A06ADFF87C80854209D3606B0068A0B151
:103B7000606BC068C7687868854211D2A06220680F
:103B8000C06A00EB800158F82100012800D9012605
:103B9000E0690028C9D00126C7E74FF0FF30EDE704
:103BA000381DFFF711FDB86A18B107F11800FFF7CB
:103BB0000BFDF96A0120226988401043206101EB66
:103BC000810108EB8100391DFFF742FDF86A216889
:103BD000C96A8842C9D30126C7E700002C0000202B
:103BE000480900202DE9F0472C4D00242746286B7A
:103BF00038B1FFF739FD286B401E2863286B40B1B0
:103C000046E0502080F31188BFF34F8FBFF36F8FD2
:103C1000FEE7A968224E0120D1B3A6F1B40980467F
:103C20003068E8B1F068C46804F11800FFF7CCFC14
:103C3000201DFFF7C9FCE06A2A6908FA00F1114368
:103C4000296100EB800109EB8100211DFFF700FDD8
:103C5000E06A2968C96A8842E2D3C5F81C80DFE7B8
:103C60000CB1FFF7BBFBAC6944B14646FFF754FF0C
:103C700000B1EE61641EF9D10020A861E86938B195
:103C80000849012738070860BFF34F8FBFF36F8FD4
:103C9000FFF70AFD3846BDE8F08700002C00002041
:103CA000FC09002004ED00E0544B0008BF2600088A
:103CB0000000000000000000800000000000000084
:103CC00000000000000000000000000000000000F4
:103CD0000000FC000000000002000000000C020CCC
:103CE000020000000000000090D0BCD0BC90000397
:103CF000000300001824FE448C00030207020100A8
:103D00001824D8B04C80000300010201C038E43808
:103D1000E0000102020102020806000000000000AB
:103D200000000000000000F804020000000102048E
:103D3000000204F800000004020100009060F86036
:103D400090000000010000002020FC202000000066
:103D50000100000000000000000008060000000054
:103D600020202020200000000000000000000000B3
:103D700000000002000000000080601C020004033C
:103D800000000000F8040404F8000102020201002F
:103D90000008FC0000000002030200001884442414
:103DA000180003020202020008042424D8000102C1
:103DB0000202010040B088FC800000000003020005
:103DC0003C242424C400010202020100F824242C13
:103DD000C0000102020201000C04E41C0400000007
:103DE00003000000D8242424D800010202020100AC
:103DF00038444444F80000030202010000001000AF
:103E00000000000002000000000020000000000090
:103E1000060000000020508804020000000001029B
:103E20009090909090000000000000000002048834
:103E300050200002010000001804C42418000000F3
:103E400002000000F804E494F800010202020200FB
:103E500000E09CF0800002030000030204FC242424
:103E6000D800020302020100F80404040C0001025D
:103E70000202010004FC0404F80002030202010033
:103E800004FC24740C0002030202030004FC2474EA
:103E90000C00020302000000F0080444CC400001C2
:103EA0000202010004FC2020FC04020300000302C3
:103EB0000404FC040400020203020200000404FCE7
:103EC000040406040403000004FC24D00C040203D0
:103ED0000200030204FC04000000020302020203C9
:103EE000FC3CC03CFC0003000300030004FC30C4A5
:103EF000FC04020302000300F8040404F8000102B9
:103F00000202010004FC2424180002030200000045
:103F1000F8848404F80001020207050004FC24640C
:103F20009800020302000302182424448C000302B8
:103F3000020201000C04FC040C0000020302000059
:103F400004FC0000FC04000102020100047C80E08B
:103F50001C040000030000001CE03CE01C00000307
:103F600000030000049C609C0400020300030200A4
:103F7000041CE01C04000002030200000C84641C0A
:103F800004000203020203000000FE02020000001F
:103F900007040400000E30C0000000000001020011
:103FA000000202FE000000040407000000040204F6
:103FB00000000000000000000000000000000808F1
:103FC00008080808000002000000000000000000CF
:103FD0000040A0A0C00000010202030204FC202057
:103FE000C00000030202010000C0202060000001A8
:103FF0000202020000C02024FC00000102020302B1
:1040000000C0A0A0C0000001020202000020F824AD
:1040100024040002030202000040A0A06020000768
:104020000A0A0A0404FC2020C00002030200030262
:104030000020E4000000000203020000000020E471
:10404000000008080807000004FC80E020200203AC
:10405000020003020404FC0000000202030202004A
:10406000E020E020C00003000300030020E0202047
:10407000C00002030200030200C02020C0000001B3
:104080000202010020E02020C000080F0A02010007
:1040900000C02020E0000001020A0F0820E04020BC
:1040A00020000203020000000060A0A02000000227
:1040B000020203000020F8200000000001020200BC
:1040C00020E00020E00000010202030220E0208046
:1040D00060200000030100006080E08060000003B9
:1040E0000003000020608060200002030003020043
:1040F00020E0208060200808070100000020A06068
:104100002000000203020200000020DE0200000086
:1041100000070400000000FF00000000000F000086
:104120000002DE200000000407000000020102047B
:1041300004020000000000000C060000C43C00085F
:10414000000000000000000000000000000000006F
:10415000000000F800000000000000333000000004
:1041600000100C06100C060000000000000000000B
:1041700040C07840C0784000043F04043F0404007D
:10418000007088FC08300000001820FF211E00008D
:10419000F008F000E018000000211C031E211E00A2
:1041A00000F00888700000001E2123241927211028
:1041B00010160E00000000000000000000000000CB
:1041C000000000E018040200000000071820400072
:1041D00000020418E0000000004020180700000062
:1041E000404080F0804040000202010F01020200C6
:1041F000000000F0000000000101011F01010100AA
:10420000000000000000000080B07000000000000E
:104210000000000000000000000101010101010197
:10422000000000000000000000303000000000002E
:104230000000000080601804006018060100000003
:1042400000E010080810E000000F102020100F0000
:10425000001010F8000000000020203F2020000087
:1042600000700808088870000030282422213000DF
:1042700000300888884830000018202020110E00E7
:104280000000C02010F8000000070424243F240090
:1042900000F80888880808000019212020110E0065
:1042A00000E0108888180000000F112020110E0077
:1042B00000380808C83808000000003F000000006F
:1042C0000070880808887000001C222121221C0030
:1042D00000E010080810E0000000312222110F0059
:1042E000000000C0C00000000000003030000000EE
:1042F000000000800000000000008060000000005E
:104300000000804020100800000102040810200076
:1043100040404040404040000404040404040400C1
:104320000008102040800000002010080402010056
:10433000007048080808F000000000303601000056
:10434000C030C828E810E0000718272423140B0009
:104350000000C038E0000000203C23020227382083
:1043600008F8888888700000203F202020110E0067
:10437000C03008080808380007182020201008005E
:1043800008F808080810E000203F202020100F0047
:1043900008F88888E8081000203F20202320180013
:1043A00008F88888E8081000203F2000030000007B
:1043B000C03008080838000007182020221E02001C
:1043C00008F808000008F808203F210101213F20DB
:1043D000000808F8080800000020203F2020000006
:1043E00000000808F8080800C08080807F000000F6
:1043F00008F888C028180800203F2001263820002F
:1044000008F8080000000000203F20202020300095
:1044100008F8F800F8F80800203F003F003F2000AF
:1044200008F830C00008F808203F200007183F00B7
:10443000E01008080810E0000F10202020100F00E6
:1044400008F808080808F000203F210101010000D9
:10445000E01008080810E0000F18242438504F001E
:1044600008F8888888887000203F2000030C3020DE
:1044700000708808080838000038202121221C001C
:10448000180808F8080818000000203F2000000065
:1044900008F808000008F808001F202020201F004E
:1044A0000878880000C83808000007380E010000AE
:1044B000F80800F80008F800033C0700073C030078
:1044C000081868808068180820302C03032C3020DE
:1044D0000838C800C83808000000203F200000004D
:1044E00010080808C83808002038262120201800A5
:1044F000000000FE020202000000007F4040400079
:10450000000C30C000000000000000010638C000B0
:1045100000020202FE000000004040407F00000058
:10452000000004020202040000000000000000007D
:10453000000000000000000080808080808080807B
:104540000002020400000000000000000000000063
:1045500000008080808000000019242222223F2059
:1045600008F8008080000000003F112020110E009C
:104570000000008080800000000E1120202011002B
:10458000000000808088F800000E112020103F20DD
:104590000000808080800000001F22222222130061
:1045A000008080F0888888180020203F20200000AC
:1045B0000000808080808000006B94949493600061
:1045C00008F8008080800000203F210000203F206C
:1045D00000809898000000000020203F202000006C
:1045E000000000809898000000C08080807F00005C
:1045F00008F8000080808000203F24022D30200039
:10460000000808F8000000000020203F20200000E3
:104610008080808080808000203F20003F20003FFD
:104620008080008080800000203F210000203F200B
:104630000000808080800000001F202020201F00BC
:10464000808000808000000080FFA12020110E00EB
:104650000000008080808000000E112020A0FF80DC
:10466000808080008080800020203F212000010089
:1046700000008080808080000033242424241900DE
:10468000008080E0808000000000001F20200000EB
:104690008080000000808000001F202020103F202C
:1046A000808080000080808000010E3008060100BC
:1046B00080800080008080800F300C030C300F0061
:1046C00000808000808080000020312E0E3120008C
:1046D000808080000080808080818E7018060100BC
:1046E00000808080808080000021302C22213000DA
:1046F00000000000807C020200000000003F4040FB
:1047000000000000FF00000000000000FF000000AB
:104710000002027C800000000040403F00000000DA
:104720000006010102020404000000000000000075
:104730001008000040410008E5B08F00000000E0D4
:10474000000000FF0000002040800000080403007B
:104750000040807F0000000000010E00E681900014
:104760008082827E4242807E122202FE0000C000D1
:10477000403100003A414044584040700109310046
:10478000E9BE99001010101010FF1010F010111653
:10479000D010100080402018064120103F444241B4
:1047A00040407800E6B8B8001060028C0008F94E6E
:1047B000C820584F48C8080004047E8140300F408C
:1047C0007F0044847F040400E6888F000008488846
:1047D00008C838404040FF2022AC20000020100CC8
:1047E00003041880402017182641F000E5BC800023
:1047F00080828282FE8282828282FE828282800027
:10480000008040300F0000000000FF0000000000AA
:10481000E5A78B001010F01F10F00040E058474053
:104820005060C0004022150816210000FE4242429E
:1048300042FE00001010000038470008070000008A
:1048400030470008E69C800010F05F55F555D555BF
:104850005FD01000020301010704040303040400F5
:10486000E9AB980002E222BAAAABAABA22E202009D
:10487000000700030202020304070000E588860027
:1048800020102C23E0202023EC102000040402013F
:104890000000040403000000E696B00052565AF3EC
:1048A0005A5600FE12F11100020104070005020130
:1048B00000070000E7BAAA00486C5B4800E2222229
:1048C000223E000002020101000304040404070068
:1048D000E5BD95001010355595F555955F301000E4
:1048E000020201010407000001020200EFBC810086
:1048F0000000001EFF1E000000000000000000007D
:104900000600000000000000E695B0006556CC7F70
:10491000D66508FF04FC0400040505020504040232
:1049200001020400E5BE97004824F308005F5555D6
:10493000D55F4000000007000103010507010100E9
:10494000E5BD930000129498909F909894F2000017
:10495000000404040404040404070000E5898D0035
:104960000004F45556F404F605F4040000000701B1
:104970000507000504070000EFBC9A0000000000D6
:1049800000008C8C0000000000000000000001010D
:10499000000000000C0C0000444800080C0000005F
:1049A0003841000800000000000000000000FEFF89
:1049B000F1F5F1FFFFFFFF7F7E7FFCF8E0E0F8FC00
:1049C000FCFEFFFFFFFFFF7F041C00000000808053
:1049D000818387FFDF878787FFC3C38180808080D3
:1049E0008080800015170000A449000815170000FA
:1049F0003A4A000815170000794A00081517000008
:104A0000B84A0008060E0000F74A00080C1700001C
:104A1000034B00080004070B0E111417191C1E1F6E
:104A200021222324252526262525242322211F1E55
:104A30001C191714110E0B070400000000000000E1
:104A400000000000FEFFFFFBFFFFBFBFBF3F3E3F78
:104A5000FCF8F0F0F8FCFCFEFFFFFFFFFF7F040C0A
:104A6000000000008080818387FFDF8F87878F8B26
:104A70008B818080808080808000000000000000AA
:104A8000000000FEFFFFFBFFFFBFBFBF3F3E3FFC3C
:104A9000F8F0F0F8FCFCFEFFFFFFFFFF7F040C00C6
:104AA00000000080808183878F9F97878FFFC3C31B
:104AB00081808080808080800000000000000000F5
:104AC0000000FEFFFFFBFFFFBFBFBF3F3E3FFCF804
:104AD000F0F0F8FCFCFEFFFFFFFFFF7F040C00007E
:104AE00000008080818387FFDF8F878FFFC3C381B2
:104AF00080808080808080F800FFFFC07CC1C1FF83
:104B0000FFC0C080C08000FFFFFFFF00E0E0E03F8B
:104B10007F7F60FFFFFFFF607F3F1F80808080FFFF
:104B2000FFFFFF8080808001020203040506070862
:104B3000090A0B0C0D0E0F10100000000000000001
:104B40000001020304060708090000000001020337
:104B50000400000064656661756C745461736B00D9
:104B6000804B00080000002094000000280100088D
:104B7000144C000894000020041C000044010008AC
:104B80000000000000000000000000000000000025
:104B90000000000000000000000000000100000014
:104BA000100000000000000000127A000000000069
:104BB00000000000000000000000000000000000F5
:104BC00000000000000000000000000000000000E5
:104BD00000000000000000000000000000000000D5
:104BE00000000000000000000000000000000000C5
:104BF00000000000000000000000000000000000B5
:104C0000000000000000000000000000AAAAAAAAFC
:044C100000000000A0
:04000005080000ED02
:00000001FF
